:1000000037C073C150C04FC04EC04DC0A6C24BC018
:100010004AC049C048C047C046C045C044C043C0AC
:1000200042C041C040C0090212000101008019090C
:10003000040000000000000012011001FF00000891
:10004000C016DC0400010102000116034F0073001A
:10005000630069006C006F0073006F007000650042
:100060000C03530061006D00690072000403090471
:1000700011241FBECFE5D4E0DEBFCDBF10E0A0E667
:10008000B0E0EEE5F7E002C005900D92A236B107B0
:10009000D9F720E0A2E6B0E001C01D92A63FB2076A
:1000A000E1F73CD35AC3ACCFCF93DF936091DC0030
:1000B000635067FDA4C08091D900CCE0D0E0C81B9C
:1000C000D109C052DF4F8091D8008D3209F086C02F
:1000D000683009F092C083EC8093CC008AE580936D
:1000E0006100109262008881807631F0CE0196D254
:1000F0008F3F09F462C068C08A811092D50099814F
:10010000911106C01092D60025ED30E082E050C07B
:10011000953019F48093DD003DC09630A9F59B81A0
:10012000913019F488E390E004C0923041F486E203
:1001300090E09093DB008093DA0082E121C093305D
:10014000F1F4811108C08CE690E09093DB0080937D
:10015000DA0084E015C0813041F480E690E09093AD
:10016000DB008093DA008CE00BC0823041F48AE43B
:1001700090E09093DB008093DA0086E101C080E09C
:1001800090E49093620020C0983079F0993031F477
:100190008093DF0025ED30E080E00AC081E09A30F6
:1001A00009F080E025ED30E003C02FED30E081E084
:1001B0003093DB002093DA0007C0988197FD8E8191
:1001C00090E89093620007C09F81911104C09E81C6
:1001D000981708F4892F809360000FC08091620007
:1001E00087FF0BC0CE016FD28F3F21F48EE1809349
:1001F000610003C08111109260001092DC008091B8
:10020000610084FF45C0809160008F3F09F440C0C9
:10021000C82F893008F0C8E08C1B80936000909153
:10022000CC0088E889278093CC00CC2329F18091E9
:10023000DA009091DB002091620026FF0AC0ADEC4D
:10024000B0E0FC012C2F34913D9331962150D9F729
:1002500008C0DC01EDECF0E02C2F3D9131932150F2
:10026000E1F72FEF2C0F30E02F5F3F4F820F931FEE
:100270009093DB008093DA006C2F8DEC90E031D00E
:10028000CC5FCC3019F08FEF80936000C093610099
:1002900084E190B39C7031F48150D9F71092DD0065
:1002A0001092D700DF91CF91089585B7826085BF06
:1002B0008BB780648BBF0895A82FB92F80E090E0A2
:1002C00041E050EA609530E009C02D918227979572
:1002D000879510F084279527305EC8F36F5FA8F3E9
:1002E0000895EADF8D939D930895CF93CFB7CF9371
:1002F000C395839BE9F7839B09C0839B07C0839BBE
:1003000005C0839B03C0839B01C0A1C0DF93C09144
:10031000D900DD27C052DF4F839B02C0DF91EBCFB6
:100320002F930F931F9300B32FEF03FB20F94F93ED
:100330003F9310B34FEF012703FB21F93BE031C09E
:100340004E7F012F10B3216028C0102F4D7F2260F7
:10035000000000B329C04B7F2460012F000010B3C0
:100360002BC010B3477F28602AC04F7E00B32061A6
:100370002CC04F7D10B320622FC04F7B00B3206490
:1003800032C0422700B349934FEF0000102713FB00
:1003900020F910B31C70C9F1297F91F2012703FBEA
:1003A00021F900B3237F89F2315058F1102713FB54
:1003B00022F910B3277E79F2012703FB23F92F7C62
:1003C00081F200B3102713FB24F92F7971F200C0DA
:1003D00010B3012703FB25F92F7359F200C000B3B6
:1003E000102713FB26F9223040F200C010B301277A
:1003F00003FB27F9243028F64F77206810B300005C
:10040000F9CF10E41ABF002717C03B503195C31B2A
:10041000D04010E41ABF0881033CE9F00B34D9F056
:100420002091D7001981110F1213EDCF093641F138
:100430000D3211F0013E39F70093DE003F914F91EC
:100440001F910F912F91DF91CAB7C6FD51CFCF9168
:10045000CFBFCF9118952091DE00222379F3109120
:10046000DC00112311F5343012F13093DC002093BD
:10047000D8001091D9003BE0311B3093D90017C050
:100480000091DC0001308CF40AE53091610034FD0C
:1004900010C000936100CCECD0E00FC02795A8F409
:1004A0005150A9F4220F0000F9CF4AE503C042EDF4
:1004B00001C0432FC4E1D0E032E011B31C60939A35
:1004C00011BB02B320E41CE05F93012756E002BB9E
:1004D000279520F4515021F4220FF9CF012756E03F
:1004E00000003B5A02BBD0F2279528F4515029F462
:1004F000220F0000F9CF012756E0279502BB20F418
:10050000515021F4220FF9CF012756E029913323CE
:1005100002BB21F6037F1091DD00110FC651D040C0
:1005200002BB11F01093D70010E41ABF086011B39A
:10053000137F402F437F5F9100C000C002BB11BBFF
:1005400042BB7CCF80E687B986B1876C86B90895B7
:10055000369A349BFECF85B108951F920F920FB645
:100560000F9211242F933F934F935F936F937F9339
:100570008F939F93AF93BF93CF93DF93EF93FF93AB
:1005800080919600823360F4C0919600D0E0E0DF65
:10059000CD59DF4F8883809196008F5F80939600BE
:1005A000FF91EF91DF91CF91BF91AF919F918F918B
:1005B0007F916F915F914F913F912F910F900FBE5F
:1005C0000F901F9018951FBC1EBC9EB598609EBDD5
:1005D000833091F038F4813061F0823099F48EB537
:1005E00082600FC0843059F0853061F48EB585602B
:1005F00008C08EB5816005C08EB5836002C08EB51F
:1006000084608EBD8FB7F8941DBC1CBC7BBD6ABDD9
:100610008FBF89B7806189BF78940895FC0181817B
:10062000833069F1843009F43FC0823009F047C05B
:10063000809196008233C9F480939900EAE9F0E052
:1006400080E090E0DC01AD59BF4F2C9121930196E1
:1006500082339105B9F789E990E09093DB008093AC
:10066000DA001092960083E308951092990089E9C8
:1006700090E09093DB008093DA0081E008959FB7CB
:10068000F8942AB53BB5309399002AB53BB5209331
:100690009A0024E420939B009FBF29E930E0309327
:1006A000DB002093DA0008958681809397001092F2
:1006B0009800843330F083E38093970002C080E099
:1006C00008958FEF0895CF93DF93D0919700C09155
:1006D00098006C0FCD1798F0C093980060919B0024
:1006E00070E0762F662780919A00680F711D8091C7
:1006F000990069DF81E0CD1771F080E00CC0C6176A
:1007000059F3FC012191CF01EC2FF0E0E756FF4FA8
:100710002083CF5FDFCFDF91CF91089514BA9EE0A1
:1007200088E10FB6F894A89581BD0FBE91BD0ADF90
:100730006FEF7FEF81E047DFB8DD8B9A8AEFA895F6
:10074000EFE6F7E13197F1F700C000008150B9F70B
:0E07500078948B98A895A8DCFDCFF894FFCF85
:02075E00FF5A40
:00000001FF
